:020000040800F2
:1000000000280020F91700088D1600089316000834
:10001000991600089F160008A516000800000000A9
:10002000000000000000000000000000AB16000807
:10003000B716000800000000C3160008CF1600081D
:10004000411800084118000841180008411800082C
:10005000411800084118000841180008411800081C
:10006000411800084118000841180008411800080C
:1000700041180008411800084118000841180008FC
:1000800041180008411800084118000841180008EC
:1000900041180008411800084118000841180008DC
:1000A00041180008411800084118000841180008CC
:1000B000DD16000841180008000000004118000883
:1000C000411800080000000000000000411800086E
:1000D000000000004118000841180008000000005E
:1000E00041180008411800084118000800000000ED
:1000F0000000000000000000000000000000000000
:0C01000000000000000000005FF808F1A3
:10010C0010B5054C237833B9044B13B10448AFF345
:10011C0000800123237010BD580000200000000057
:10012C00782E000808B5034B1BB103490348AFF305
:10013C00008008BD000000005C000020782E000844
:10014C0080B400AF064B1B68002B04D0044B00227C
:10015C001A60012300E000231846BD4680BC70479E
:10016C007400002080B400AF064B1B68002B04D039
:10017C00044B00221A60012300E000231846BD4600
:10018C0080BC70477800002080B400AF064B1B6821
:10019C00002B04D0044B00221A60012300E0002342
:1001AC001846BD4680BC70477C00002080B500AF6F
:1001BC001F4B1B681F4A13601F4B1B681C4A1360A4
:1001CC0004211E4801F024FE03461A461A4B1A60FD
:1001DC00184B1A68164B1B689A4226D1144B1A6896
:1001EC00154B1B689A4220D1154B1A68124B1B6891
:1001FC009A420ED0104B1B68114A13600E4B1B68B1
:10020C00002B12D10F4B01221A600F4BC8221A601F
:10021C000BE00D4B1B68013B0B4A13600A4B1B6830
:10022C00002B02D1064B01221A6000BF80BD00BF1B
:10023C0004000020000000200800002000080140FD
:10024C000C000020740000203000002080B500AFAE
:10025C001F4B1B681F4A13601F4B1B681C4A136003
:10026C0008211E4801F0D4FD03461A461A4B1A60A9
:10027C00184B1A68164B1B689A4226D1144B1A68F5
:10028C00154B1B689A4220D1154B1A68124B1B68F0
:10029C009A420ED0104B1B68114A13600E4B1B6810
:1002AC00002B12D10F4B01221A600F4BC8221A607F
:1002BC000BE00D4B1B68013B0B4A13600A4B1B6890
:1002CC00002B02D1064B01221A6000BF80BD00BF7B
:1002DC00140000201000002018000020000801402D
:1002EC001C000020780000203400002080B500AFF6
:1002FC001F4B1B681F4A13601F4B1B681C4A136063
:10030C0010211E4801F084FD03461A461A4B1A6050
:10031C00184B1A68164B1B689A4226D1144B1A6854
:10032C00154B1B689A4220D1154B1A68124B1B684F
:10033C009A420ED0104B1B68114A13600E4B1B686F
:10034C00002B12D10F4B01221A600F4BC8221A60DE
:10035C000BE00D4B1B68013B0B4A13600A4B1B68EF
:10036C00002B02D1064B01221A6000BF80BD00BFDA
:10037C00240000202000002028000020000801405C
:10038C002C0000207C0000203800002080B500AF3D
:10039C00AE4B1B78072B00F2688301A252F823F0B6
:1003AC00CD030008750400086705000885060008E1
:1003BC0077070008690800083D090008E5090008EE
:1003CC0000222021A24801F03AFD00228021A04801
:1003DC0001F035FD002240219D4801F030FD002246
:1003EC004FF480719A4801F02AFD00224FF480618D
:1003FC00974801F024FD00224FF40071944801F05D
:10040C001EFD944B1B68002B00F031838F4B012297
:10041C001A70914B1B68013B904A1360904B1B6800
:10042C00013B904A13608C4B1B685A1E8C4B1B680B
:10043C00013B1946104600F011FE8B4B00221A604E
:10044C00894B1B68184600F071FD854B1B686422B4
:10045C0002FB03F3184601F04BF9192001F05CF98B
:10046C00642001F06DF902E300F024FB00F07CFB4A
:10047C007E4B1B68002B13D07B4B1B6801335A42FD
:10048C0003F0030302F0030258BF5342764A136091
:10049C00754B1B68184600F049FD192001F03CF91A
:1004AC00734B1B68002B14D06C4B1B68013B6B4AC5
:1004BC0013606C4B1B68013B6A4A1360674B1B68EB
:1004CC00684A12681146184600F0C8FD642001F015
:1004DC0037F9604B1B68002B31D0FFF731FE034618
:1004EC00002B2CD1594B02221A70624B1B68013B1A
:1004FC005A4A13605F4B1B68013B5A4A13605D4BB1
:10050C001B685A1E5B4B1B68013B1946104600F0DA
:10051C00A5FD554B00221A60534B1B68184600F082
:10052C0005FD544B1B68642202FB03F3184601F0D3
:10053C00DFF8192001F0F0F8642001F001F9FFF761
:10054C00FFFD0346002B00F09482404B05221A70ED
:10055C004FF47A6001F0CCF88BE200F0ABFA00F0CB
:10056C001BFB424B1B68002B13D03F4B1B6801330A
:10057C005A4203F0030302F0030258BF53423A4AB3
:10058C001360394B1B68184600F0D0FC192001F0A1
:10059C00C3F8374B1B68002B14D0304B1B68013B46
:1005AC002E4A13602F4B1B68013B2E4A13602B4BBA
:1005BC001B682C4A12681146184600F04FFD642047
:1005CC0001F0BEF8234B1B68002B31D0FFF7B8FDB0
:1005DC000346002B2CD11D4B03221A70204B1B6899
:1005EC00013B1E4A13601C4B1B68013B1D4A1360E8
:1005FC001B4B1B685A1E184B1B68013B19461046B7
:10060C0000F02CFD184B00221A60174B1B68184683
:10061C0000F08CFC124B1B68642202FB03F318469F
:10062C0001F066F8192001F077F8642001F088F8E1
:10063C00FFF786FD0346002B00F01D82034B0522BD
:10064C001A704FF47A6001F053F814E28000002025
:10065C0000080140F0000020400000209400002021
:10066C0048000020980000209C000020F80000208A
:10067C00000100204400002000F032FA00F05CFA87
:10068C00A04B1B68002B13D09F4B1B6801335A42A5
:10069C0003F0030302F0030258BF53429A4A13605B
:1006AC00994B1B68184600F041FC192001F034F8F6
:1006BC00964B1B68002B14D0954B1B68013B944A3E
:1006CC001360944B1B68013B924A1360904B1B6860
:1006DC00904A12681146184600F0C0FC642001F0E4
:1006EC002FF88D4B1B68002B31D0FFF729FD0346EB
:1006FC00002B2CD1894B04221A70894B1B68013BAF
:10070C00834A1360864B1B68013B824A1360844BFF
:10071C001B685A1E824B1B68013B1946104600F0A1
:10072C009DFC794B00221A60774B1B68184600F031
:10073C00FDFB7B4B1B68642202FB03F3184600F0A5
:10074C00D7FF192000F0E8FF642000F0F9FFFFF755
:10075C00F7FC0346002B00F09081704B05221A70B9
:10076C004FF47A6000F0C4FF87E100F0CFF900F09D
:10077C00E3F9644B1B68002B13D0634B1B680133EC
:10078C005A4203F0030302F0030258BF53425E4A7D
:10079C0013605D4B1B68184600F0C8FB192000F075
:1007AC00BBFF5A4B1B68002B14D0594B1B68013BE9
:1007BC00574A1360574B1B68013B564A1360544B06
:1007CC001B68544A12681146184600F047FC642016
:1007DC0000F0B6FF504B1B68002B31D0FFF7B0FC7C
:1007EC000346002B2CD14D4B01221A704D4B1B682C
:1007FC00013B474A13604C4B1B68013B454A136055
:10080C00484B1B685A1E484B1B68013B1946104647
:10081C0000F024FC3C4B00221A603B4B1B68184632
:10082C0000F084FB404B1B68642202FB03F3184668
:10083C0000F05EFF192000F06FFF642000F080FFD5
:10084C00FFF77EFC0346002B00F01981334B052289
:10085C001A704FF47A6000F04BFF10E10221002077
:10086C0000F038FCFFF790FC0346002B03D02F4B15
:10087C001B682C4A1360FFF763FC0346002B09D05E
:10088C002A4B01221A60254B06221A704FF47A600B
:10089C0000F02EFF204B1B68002B00F0F28000F0C4
:1008AC0053FD224B01221A601C4B01221A701D4B66
:1008BC001B68013B164A13601B4B1B68013B154A16
:1008CC001360184B1B685A1E174B1B68013B1946CB
:1008DC00104600F0C3FB0C4B00221A600A4B1B683D
:1008EC00184600F023FB104B1B68642202FB03F339
:1008FC00184600F0FDFE192000F00EFF642000F0F9
:10090C001FFFBEE0F80000209C000020000100202A
:10091C009400002098000020F000002080000020AF
:10092C004400002040000020480000203C00002033
:10093C000321012000F0CEFBFFF726FC0346002B21
:10094C0003D0534B1B68534A1360FFF7F9FB034664
:10095C00002B09D04E4B01221A604F4B07221A7004
:10096C004FF47A6000F0C4FE4C4B1B68002B00F077
:10097C008A8000F0E9FC464B01221A60464B0122AA
:10098C001A70474B1B68013B464A1360464B1B6869
:10099C00013B464A1360424B1B685A1E424B1B6874
:1009AC00013B1946104600F059FB414B00221A60DE
:1009BC003F4B1B68184600F0B9FA3B4B1B6864228E
:1009CC0002FB03F3184600F093FE192000F0A4FE7E
:1009DC00642000F0B5FE56E00421022000F07AFB02
:1009EC00FFF7D2FB0346002B03D0294B1B682E4A82
:1009FC001360FFF7A5FB0346002B03D1274B1B68A5
:100A0C00002B42D000F0A0FC214B01221A60224B9B
:100A1C0001221A70224B1B68013B224A1360224BA5
:100A2C001B68013B214A13601D4B1B685A1E1E4B51
:100A3C001B68013B1946104600F010FB1C4B0022B2
:100A4C001A601B4B1B68184600F070FA164B1B689B
:100A5C00642202FB03F3184600F04AFE192000F052
:100A6C005BFE642000F06CFE0FE000BF0EE000BFE8
:100A7C000CE000BF0AE000BF08E000BF06E000BFCA
:100A8C0004E000BF02E000BF00E000BF00BF80BD7B
:100A9C003C0000204400002080000020F0000020DA
:100AAC004000002094000020480000209800002006
:100ABC009C00002080B500AF01222021074801F0E6
:100ACC00BEF900228021054801F0B9F9002240212D
:100ADC00024801F0B4F900BF80BD00BF000801401E
:100AEC0080B500AF00222021074801F0A8F90122AF
:100AFC008021054801F0A3F900224021024801F0B1
:100B0C009EF900BF80BD00BF0008014080B500AF5A
:100B1C0000222021074801F092F90022802105488B
:100B2C0001F08DF901224021024801F088F900BF43
:100B3C0080BD00BF0008014080B500AF01224FF41A
:100B4C008071084801F07BF900224FF48061054860
:100B5C0001F075F900224FF40071024801F06FF9B1
:100B6C0000BF80BD0008014080B500AF00224FF4EB
:100B7C008071084801F063F901224FF48061054847
:100B8C0001F05DF900224FF40071024801F057F9B1
:100B9C0000BF80BD0008014080B500AF00224FF4BB
:100BAC008071084801F04BF900224FF48061054830
:100BBC0001F045F901224FF40071024801F03FF9B0
:100BCC0000BF80BD0008014080B582B000AF7860E6
:100BDC007B68092B00F2808101A252F823F000BF40
:100BEC00150C00085D0C0008A50C0008ED0C0008A5
:100BFC00350D00087D0D0008C50D00080D0E000810
:100C0C00550E00089D0E000800220121C64801F077
:100C1C0016F900220221C44801F011F90022042126
:100C2C00C14801F00CF900220821BF4801F007F976
:100C3C0000221021BC4801F002F900222021BA4800
:100C4C0001F0FDF801224021B74801F0F8F867E106
:100C5C0001220121B44801F0F2F800220221B2482D
:100C6C0001F0EDF800220421AF4801F0E8F8012270
:100C7C000821AD4801F0E3F801221021AA4801F047
:100C8C00DEF801222021A84801F0D9F801224021E8
:100C9C00A54801F0D4F843E100220121A24801F05B
:100CAC00CEF800220221A04801F0C9F8012204214B
:100CBC009D4801F0C4F8002208219B4801F0BFF8C0
:100CCC0000221021984801F0BAF801222021964800
:100CDC0001F0B5F800224021934801F0B0F81FE173
:100CEC0000220121904801F0AAF8002202218E482E
:100CFC0001F0A5F8002204218B4801F0A0F8002295
:100D0C000821894801F09BF801221021864801F046
:100D1C0096F801222021844801F091F8002240210C
:100D2C00814801F08CF8FBE0012201217E4801F0A2
:100D3C0086F8002202217C4801F081F8002204216F
:100D4C00794801F07CF801220821774801F077F806
:100D5C0001221021744801F072F8002220217248FF
:100D6C0001F06DF8002240216F4801F068F8D7E0DF
:100D7C00002201216C4801F062F8012202216A482C
:100D8C0001F05DF800220421674801F058F80022B8
:100D9C000821654801F053F801221021624801F046
:100DAC004EF800222021604801F049F80022402131
:100DBC005D4801F044F8B3E0002201215A4801F0EB
:100DCC003EF801220221584801F039F80022042192
:100DDC00554801F034F800220821534801F02FF84F
:100DEC0000221021504801F02AF8002220214E4800
:100DFC0001F025F8002240214B4801F020F88FE04B
:100E0C0000220121484801F01AF80022022146482C
:100E1C0001F015F800220421434801F010F80122DA
:100E2C000821414801F00BF8012210213E4801F045
:100E3C0006F8012220213C4801F001F80122402152
:100E4C00394800F0FCFF6BE000220121364800F02D
:100E5C00F6FF00220221344800F0F1FF00220421A9
:100E6C00314800F0ECFF002208212F4800F0E7FF8A
:100E7C00002210212C4800F0E2FF002220212A48F9
:100E8C0000F0DDFF00224021274800F0D8FF47E0AA
:100E9C0000220121244800F0D2FF00220221224826
:100EAC0000F0CDFF002204211F4800F0C8FF0022F3
:100EBC0008211D4800F0C3FF012210211A4800F040
:100ECC00BEFF00222021184800F0B9FF002240216B
:100EDC00154800F0B4FF23E001220121124800F074
:100EEC00AEFF01220221104800F0A9FF01220421CB
:100EFC000D4800F0A4FF012208210B4800F09FFFD1
:100F0C0001221021084800F09AFF012220210648F6
:100F1C0000F095FF01224021034800F090FF00BF34
:100F2C0000BF0837BD4680BD000C014080B582B0C3
:100F3C0000AF78607B68032B00F2848001A252F82A
:100F4C0023F000BF610F00089D0F0008D90F0008A7
:100F5C001510000800224FF480513E4800F06FFF3E
:100F6C0001224FF400513B4800F069FF01224FF47D
:100F7C008041384800F063FF01224FF400413548AE
:100F8C0000F05DFF344B1B681846FFF71DFE5DE05B
:100F9C0001224FF480512F4800F051FF00224FF4F2
:100FAC0000512C4800F04BFF01224FF4804129489E
:100FBC0000F045FF01224FF40041264800F03FFFAE
:100FCC00254B5B681846FFF7FFFD3FE001224FF40D
:100FDC008051204800F033FF01224FF400511D488E
:100FEC0000F02DFF00224FF480411A4800F027FF3B
:100FFC0001224FF40041174800F021FF164B9B686B
:10100C001846FFF7E1FD21E001224FF48051114811
:10101C0000F015FF01224FF400510E4800F00FFFB5
:10102C0001224FF480410B4800F009FF00224FF4DD
:10103C000041084800F003FF074BDB681846FFF738
:10104C00C3FD03E00920FFF7BFFD00BF00BF083759
:10105C00BD4680BD000801408400002080B483B0F0
:10106C0000AF786039607B68184A82FB03129210DB
:10107C00DB17D31A164A13607968144B83FB0123D0
:10108C009A10CB17D21A13469B0013445B00CA1A52
:10109C000F4B5A603B680D4A82FB03129210DB1710
:1010AC00D31A0B4A93603968084B83FB01239A10BF
:1010BC00CB17D21A13469B0013445B00CA1A044B7D
:1010CC00DA6000BF0C37BD4680BC70476766666649
:1010DC008400002080B582B000AF03463960FB71FC
:1010EC00934B00221A60924A3B685360FB79022BA7
:1010FC0000F09280022B00F3D480002B02D0012B45
:10110C0045D0CEE0002280218A4800F098FE0022D3
:10111C004021884800F093FE00224FF480618548FE
:10112C0000F08DFE00224FF40071824800F087FE23
:10113C00012220217F4800F082FE01224FF48071B1
:10114C007C4800F07CFEFFF70DF80346002B04D022
:10115C00794B1B680133784A1360774B1B68774ACD
:10116C0082FB03129210DB17D31A714A9360724BF5
:10117C001968724B83FB01239A10CB17D21A1346B2
:10118C009B0013445B00CA1A694BDA608AE00022A8
:10119C002021684800F053FE00228021654800F0B1
:1011AC004EFE00224FF48071624800F048FE00228F
:1011BC004FF480615F4800F042FE012240215D48FF
:1011CC0000F03DFE01224FF400715A4800F037FE4A
:1011DC00FEF7C8FF0346002B04D0574B1B680133A6
:1011EC00554A1360544B1B68544A82FB03129210ED
:1011FC00DB17D31A4E4A93604F4B19684F4B83FB46
:10120C0001239A10CB17D21A13469B0013445B0090
:10121C00CA1A474BDA6045E000222021454800F00D
:10122C000EFE00224021434800F009FE00224FF43C
:10123C008071404800F003FE00224FF400713D48DD
:10124C0000F0FDFD012280213A4800F0F8FD01225A
:10125C004FF48061374800F0F2FDFEF783FF034640
:10126C00002B04D0344B1B680133334A1360324BD0
:10127C001B68324A82FB03129210DB17D31A2C4ADA
:10128C0093602D4B19682D4B83FB01239A10CB17C0
:10129C00D21A13469B0013445B00CA1A244BDA6023
:1012AC0000E000BF264B1B68002B3CD0254B1B6875
:1012BC001846FFF73BFE234B1B6801335A4203F0E1
:1012CC00030302F0030258BF53421E4A1360FB791A
:1012DC00022B1AD0022B22DC002B02D0012B0AD0BD
:1012EC001DE02021134800F0C2FD4FF4807111481D
:1012FC0000F0BDFD14E040210E4800F0B8FD4FF4A5
:10130C0000710C4800F0B3FD0AE08021094800F0A0
:10131C00AEFD4FF48061074800F0A9FD00E000BF6E
:10132C00192000F0F9F900BF0837BD4680BD00BF99
:10133C0084000020000801403C00002067666666BF
:10134C00F8000020A000002080B400AF0A4B1A68FF
:10135C000A4B1B681A440A4B1B689A4208D0084B6C
:10136C0005221A60054B02221A60034B03221A60F5
:10137C0000BFBD4680BC70474800002044000020E0
:10138C004000002080B500AF00F056FA00F034F8B1
:10139C0000F0BAF800F06CF8144801F0AFF9144BF7
:1013AC0000221A7001224FF48051124800F047FDC0
:1013BC0001224FF400510F4800F041FD01224FF47F
:1013CC0080410C4800F03BFD01224FF400410948DC
:1013DC0000F035FD642000F08BF9642000F09CF9DE
:1013EC00642000F0ADF9FEF7D1FFFCE7A40000206B
:1013FC00800000200008014080B590B000AF07F1DC
:10140C00180328220021184601F004FD3B1D002280
:10141C001A605A609A60DA601A610223BB61012378
:10142C00BB621023FB6200237B6307F11803184691
:10143C0000F036FD0346002B01D000F0D5F80F2349
:10144C007B600023BB600023FB6000233B61002317
:10145C007B613B1D0021184600F0A4FF0346002BC6
:10146C0001D000F0C1F800BF4037BD4680BD000080
:10147C0080B586B000AF07F1080300221A605A60ED
:10148C009A60DA603B4600221A605A601D4B4FF09E
:10149C0080421A601B4B41F63F725A60194B002276
:1014AC009A60184B0922DA60164B00221A61154B10
:1014BC0000229A61134801F0D1F80346002B01D0A9
:1014CC0000F092F84FF48053BB6007F10803194603
:1014DC000C4801F04FFA0346002B01D000F084F8C1
:1014EC0000233B6000237B603B461946054801F016
:1014FC0027FC0346002B01D000F076F800BF18370C
:10150C00BD4680BDA400002080B586B000AF07F1B9
:10151C00080300221A605A609A60DA60274B9B69B4
:10152C00264A43F004039361244B9B6903F00403A4
:10153C007B607B68214B9B69204A43F008039361D5
:10154C001E4B9B6903F008033B603B6800224FF283
:10155C00E0711B4800F073FC00227F21194800F059
:10156C006EFC1C23BB600023FB6001233B6107F175
:10157C0008031946124800F0CFFA4FF2E073BB6033
:10158C000123FB6000233B6102237B6107F108030D
:10159C0019460B4800F0C0FA7F23BB600123FB60A7
:1015AC0000233B6102237B6107F1080319460548C0
:1015BC0000F0B2FA00BF1837BD4680BD00100240E3
:1015CC0000080140000C014080B582B000AF78608B
:1015DC0000F0CAF8FEF7EAFDFEF738FEFEF786FECD
:1015EC0000BF0837BD4680BD80B400AF72B600BFE7
:1015FC00FEE7000080B483B000AF0E4B9B690D4A30
:10160C0043F0010393610B4B9B6903F001037B6077
:10161C007B68084BDB69074A43F08053D361054B69
:10162C00DB6903F080533B603B6800BF0C37BD4661
:10163C0080BC70470010024080B584B000AF786069
:10164C007B681B68B3F1804F13D10C4BDB690B4AE1
:10165C0043F00103D361094BDB6903F00103FB6029
:10166C00FB68002200211C2000F01FFA1C2000F057
:10167C0038FA00BF1037BD4680BD00BF00100240D5
:10168C0080B400AFFEE780B400AFFEE780B400AFDB
:10169C00FEE780B400AFFEE780B400AFFEE780B495
:1016AC0000AF00BFBD4680BC704780B400AF00BF28
:1016BC00BD4680BC704780B400AF00BFBD4680BC47
:1016CC00704780B500AF00F0FDF800BF80BD000092
:1016DC0080B500AF024801F05DF800BF80BD00BFCF
:1016EC00A400002080B400AF00BFBD4680BC704792
:1016FC0080B483B000AF7860054A7B681360054BFB
:10170C0000221A6000BF0C37BD4680BC704700BF7A
:10171C00EC000020F000002080B483B000AF7860B3
:10172C00054A7B681360054B00221A6000BF0C371A
:10173C00BD4680BC704700BFF4000020F8000020BC
:10174C0080B483B000AF7860054A7B681360054BAA
:10175C0000221A6000BF0C37BD4680BC704700BF2A
:10176C00FC0000200001002080B400AF194B1B6866
:10177C00002B0BDD174B1B68013B164A1360154BF6
:10178C001B68002B02DC144B01221A60134B1B68E4
:10179C00002B0BDD114B1B68013B104A13600F4BE8
:1017AC001B68002B02DC0E4B01221A600D4B1B68D0
:1017BC00002B0BDD0B4B1B68013B0A4A1360094BDA
:1017CC001B68002B02DC084B01221A6000BFBD46CF
:1017DC0080BC7047EC000020F0000020F4000020DA
:1017EC00F8000020FC00002000010020FFF77AFF29
:1017FC000B480C490C4A002302E0D458C450043363
:10180C00C4188C42F9D3094A094C002301E0136037
:10181C000432A242FBD301F005FBFFF7B3FD704786
:10182C000000002058000020BC2E000858000020AA
:10183C0008010020FEE7000080B500AF084B1B68D4
:10184C00074A43F010031360032000F023F90F2024
:10185C0000F008F8FFF7CEFE0023184680BD00BF4D
:10186C000020024080B582B000AF7860124B1A683D
:10187C00124B1B7819464FF47A73B3FBF1F3B2FB9E
:10188C00F3F3184600F03BF90346002B01D001237B
:10189C000EE07B680F2B0AD8002279684FF0FF30DE
:1018AC0000F003F9064A7B681360002300E0012373
:1018BC0018460837BD4680BD4C000020540000205F
:1018CC005000002080B400AF054B1B781A46054B26
:1018DC001B681344034A136000BFBD4680BC7047AD
:1018EC00540000200401002080B400AF024B1B68A0
:1018FC001846BD4680BC70470401002080B485B0FA
:10190C0000AF78607B6803F00703FB600C4BDB686F
:10191C00BB60BA684FF6FF031340BB60FB681A024A
:10192C00BB68134343F0BF6343F40033BB60044A0A
:10193C00BB68D36000BF1437BD4680BC704700BF86
:10194C0000ED00E080B400AF044BDB681B0A03F031
:10195C0007031846BD4680BC704700BF00ED00E091
:10196C0080B483B000AF0346FB7197F90730002BAE
:10197C000BDBFB7903F01F02064997F907305B0973
:10198C00012000FA02F241F8232000BF0C37BD46BB
:10199C0080BC704700E100E080B483B000AF034628
:1019AC003960FB7197F90730002B0ADB3B68DAB220
:1019BC000C4997F907301201D2B20B4483F800237B
:1019CC000AE03B68DAB20849FB7903F00F03043BE9
:1019DC001201D2B20B441A7600BF0C37BD4680BC44
:1019EC00704700BF00E100E000ED00E080B489B07A
:1019FC0000AFF860B9607A60FB6803F00703FB6125
:101A0C00FB69C3F10703042B28BF0423BB61FB69EB
:101A1C000433062B02D9FB69033B00E000237B61F6
:101A2C004FF0FF32BB6902FA03F3DA43BB681A408A
:101A3C007B699A404FF0FF317B6901FA03F3D9437C
:101A4C007B680B40134318462437BD4680BC704757
:101A5C0080B582B000AF78607B68013BB3F1807FCA
:101A6C0001D301230FE00A4A7B68013B53600F212D
:101A7C004FF0FF30FFF790FF054B00229A60044BAC
:101A8C0007221A60002318460837BD4680BD00BFE8
:101A9C0010E000E080B582B000AF78607868FFF7A6
:101AAC002DFF00BF0837BD4680BD80B586B000AFA6
:101ABC000346B9607A60FB7300237B61FFF742FF3A
:101ACC0078617A68B9687869FFF790FF024697F9F0
:101ADC000F3011461846FFF75FFF00BF1837BD46A1
:101AEC0080BD80B582B000AF0346FB7197F907301B
:101AFC001846FFF735FF00BF0837BD4680BD80B5DF
:101B0C0082B000AF78607868FFF7A2FF03461846F2
:101B1C000837BD4680BD000080B48BB000AF786044
:101B2C00396000237B6200233B6261E101227B6A06
:101B3C0002FA03F3FB613B681B68FA691340BB6153
:101B4C00BA69FB699A4240F050813B685B68974ADE
:101B5C0093425ED0954A934275D8954A934258D099
:101B6C00934A93426FD8934A934252D0914A9342EC
:101B7C0069D8914A93424CD08F4A934263D88F4A8A
:101B8C00934246D08D4A93425DD8122B2AD8122B01
:101B9C0059D801A252F823F01F1C0008F91B0008A9
:101BAC000B1C00084D1C0008531C0008531C00089B
:101BBC00531C0008531C0008531C0008531C00083D
:101BCC00531C0008531C0008531C0008531C00082D
:101BDC00531C0008531C0008531C0008011C00086F
:101BEC00151C0008764A934213D02CE03B68DB6846
:101BFC003B6229E03B68DB6804333B6224E03B68D2
:101C0C00DB6808333B621FE03B68DB680C333B62EC
:101C1C001AE03B689B68002B02D104233B6213E063
:101C2C003B689B68012B05D108233B627B68FA69F2
:101C3C001A6109E008233B627B68FA695A6103E088
:101C4C0000233B6200E000BFBB69FF2B01D87B681F
:101C5C0001E07B6804337B61BB69FF2B02D87B6A94
:101C6C009B0002E07B6A083B9B003B617B691A6826
:101C7C000F213B6901FA03F3DB431A40396A3B69D4
:101C8C0001FA03F31A437B691A603B685B6803F043
:101C9C008053002B00F0A9804A4B9B69494A43F0C2
:101CAC0001039361474B9B6903F00103BB60BB6865
:101CBC00454A7B6A9B08023352F82330FB607B6AEF
:101CCC0003F003039B000F2202FA03F3DB43FA68D1
:101CDC001340FB607B683D4A93420DD07B683C4AC5
:101CEC00934207D07B683B4A934201D1022304E024
:101CFC00032302E0012300E000237A6A02F00302CE
:101D0C0092009340FA681343FB602F497B6A9B084F
:101D1C000233FA6841F823203B685B6803F48013B4
:101D2C00002B06D02C4B9A682B49BB6913438B6054
:101D3C0006E0294B9A68BB69DB43274913408B604B
:101D4C003B685B6803F40013002B06D0224BDA6867
:101D5C002149BB691343CB6006E01F4BDA68BB69B2
:101D6C00DB431D491340CB603B685B6803F40033D5
:101D7C00002B06D0184B5A681749BB6913434B60AC
:101D8C0006E0154B5A68BB69DB43134913404B60A3
:101D9C003B685B6803F48033002B1FD00E4B1A6832
:101DAC000D49BB6913430B601FE000BF00003210EC
:101DBC000000311000002210000021100000121051
:101DCC00000011100010024000000140000801400A
:101DDC00000C014000100140000401400B4B1A683C
:101DEC00BB69DB43094913400B607B6A01337B629F
:101DFC003B681A687B6A22FA03F3002B7FF496AED9
:101E0C0000BF00BF2C37BD4680BC704700040140AA
:101E1C0080B485B000AF78600B467B807B689A6895
:101E2C007B881340002B02D00123FB7301E00023BD
:101E3C00FB73FB7B18461437BD4680BC704780B4DF
:101E4C0083B000AF78600B467B8013467B707B7849
:101E5C00002B03D07A887B681A6103E07B881A0414
:101E6C007B681A6100BF0C37BD4680BC704780B4DC
:101E7C0085B000AF78600B467B807B68DB68FB60CD
:101E8C007A88FB6813401A04FB68D9437B880B40A3
:101E9C001A437B681A6100BF1437BD4680BC70477B
:101EAC0080B586B000AF78607B68002B01D1012330
:101EBC0072E27B681B6803F00103002B00F0878043
:101ECC00924B5B6803F00C03042B0CD08F4B5B68BC
:101EDC0003F00C03082B12D18C4B5B6803F480339A
:101EEC00B3F5803F0BD1894B1B6803F40033002BF7
:101EFC006CD07B685B68002B68D101234CE27B685B
:101F0C005B68B3F5803F06D1804B1B687F4A43F476
:101F1C00803313602EE07B685B68002B0CD17B4B0D
:101F2C001B687A4A23F480331360784B1B68774A1A
:101F3C0023F4802313601DE07B685B68B3F5A02F4E
:101F4C000CD1724B1B68714A43F4802313606F4BA6
:101F5C001B686E4A43F4803313600BE06B4B1B68B9
:101F6C006A4A23F480331360684B1B68674A23F476
:101F7C00802313607B685B68002B13D0FFF7B4FCE5
:101F8C00386108E0FFF7B0FC02463B69D31A642BBA
:101F9C0001D9032300E25D4B1B6803F40033002BD3
:101FAC00F0D014E0FFF7A0FC386108E0FFF79CFCD0
:101FBC0002463B69D31A642B01D90323ECE1534B42
:101FCC001B6803F40033002BF0D100E000BF7B68EA
:101FDC001B6803F00203002B63D04C4B5B6803F0CF
:101FEC000C03002B0BD0494B5B6803F00C03082B44
:101FFC001CD1464B5B6803F48033002B16D1434B4A
:10200C001B6803F00203002B05D07B681B69012BB6
:10201C0001D00123C0E13D4B1B6823F0F8027B6823
:10202C005B69DB00394913430B603AE07B681B6941
:10203C00002B20D0364B01221A60FFF755FC38617B
:10204C0008E0FFF751FC02463B69D31A022B01D979
:10205C000323A1E12D4B1B6803F00203002BF0D0EE
:10206C002A4B1B6823F0F8027B685B69DB0027496D
:10207C0013430B6015E0264B00221A60FFF734FC6B
:10208C00386108E0FFF730FC02463B69D31A022B9B
:10209C0001D9032380E11D4B1B6803F00203002BC5
:1020AC00F0D17B681B6803F00803002B3AD07B68E7
:1020BC009B69002B19D0174B01221A60FFF714FCF7
:1020CC00386108E0FFF710FC02463B69D31A022B7B
:1020DC0001D9032360E10D4B5B6A03F00203002B73
:1020EC00F0D0012000F09CFA1CE00A4B00221A6090
:1020FC00FFF7FAFB38610FE0FFF7F6FB02463B698E
:10210C00D31A022B08D9032346E100BF001002406A
:10211C000000424280044242924B5B6A03F002038D
:10212C00002BE9D17B681B6803F00403002B00F043
:10213C00A6800023FB758B4BDB6903F08053002BCF
:10214C000DD1884BDB69874A43F08053D361854BB3
:10215C00DB6903F08053BB60BB680123FB75824BCA
:10216C001B6803F48073002B18D17F4B1B687E4ACD
:10217C0043F480731360FFF7B7FB386108E0FFF797
:10218C00B3FB02463B69D31A642B01D9032303E149
:10219C00754B1B6803F48073002BF0D07B68DB68F5
:1021AC00012B06D16F4B1B6A6E4A43F0010313627D
:1021BC002DE07B68DB68002B0CD16A4B1B6A694AEB
:1021CC0023F001031362674B1B6A664A23F0040376
:1021DC0013621CE07B68DB68052B0CD1614B1B6A1E
:1021EC00604A43F0040313625E4B1B6A5D4A43F082
:1021FC00010313620BE05B4B1B6A5A4A23F0010389
:10220C001362584B1B6A574A23F0040313627B6812
:10221C00DB68002B15D0FFF767FB38610AE0FFF78E
:10222C0063FB02463B69D31A41F28832934201D9CF
:10223C000323B1E04B4B1B6A03F00203002BEED0DF
:10224C0014E0FFF751FB38610AE0FFF74DFB024643
:10225C003B69D31A41F28832934201D903239BE0A4
:10226C00404B1B6A03F00203002BEED1FB7D012BCC
:10227C0005D13C4BDB693B4A23F08053D3617B682F
:10228C00DB69002B00F08780364B5B6803F00C0396
:10229C00082B61D07B68DB69022B46D1334B0022C3
:1022AC001A60FFF721FB386108E0FFF71DFB0246BF
:1022BC003B69D31A022B01D903236DE0294B1B6810
:1022CC0003F00073002BF0D17B681B6AB3F5803FE1
:1022DC0008D1244B5B6823F400327B689B6821494E
:1022EC0013434B601F4B5B6823F474127B68196AB1
:1022FC007B685B6A0B431B4913434B601B4B0122EE
:10230C001A60FFF7F1FA386108E0FFF7EDFA0246C0
:10231C003B69D31A022B01D903233DE0114B1B68F7
:10232C0003F00073002BF0D035E0104B00221A6044
:10233C00FFF7DAFA386108E0FFF7D6FA02463B6994
:10234C00D31A022B01D9032326E0064B1B6803F09A
:10235C000073002BF0D11EE07B68DB69012B07D1E9
:10236C00012319E00010024000700040600042425E
:10237C000B4B5B68FB60FB6803F480327B681B6A69
:10238C009A4206D1FB6803F470127B685B6A9A422E
:10239C0001D0012300E0002318461837BD4680BD4C
:1023AC000010024080B584B000AF786039607B6863
:1023BC00002B01D10123D0E06A4B1B6803F007030B
:1023CC003A689A4210D9674B1B6823F0070265499B
:1023DC003B6813430B60634B1B6803F007033A68BD
:1023EC009A4201D00123B8E07B681B6803F002031A
:1023FC00002B20D07B681B6803F00403002B05D056
:10240C00594B5B68584A43F4E06353607B681B6824
:10241C0003F00803002B05D0534B5B68524A43F47E
:10242C0060535360504B5B6823F0F0027B689B68F1
:10243C004D4913434B607B681B6803F00103002B71
:10244C0040D07B685B68012B07D1474B1B6803F4BA
:10245C000033002B15D101237FE07B685B68022BD6
:10246C0007D1414B1B6803F00073002B09D10123EA
:10247C0073E03D4B1B6803F00203002B01D10123D9
:10248C006BE0394B5B6823F003027B685B68364971
:10249C0013434B60FFF728FAF8600AE0FFF724FAC1
:1024AC000246FB68D31A41F28832934201D90323C6
:1024BC0053E02D4B5B6803F00C027B685B689B0060
:1024CC009A42EBD1274B1B6803F007033A689A42F8
:1024DC0010D2244B1B6823F0070222493B6813439C
:1024EC000B60204B1B6803F007033A689A4201D03B
:1024FC00012332E07B681B6803F00403002B08D037
:10250C00194B5B6823F4E0627B68DB681649134364
:10251C004B607B681B6803F00803002B09D0124B3F
:10252C005B6823F460527B681B69DB000E49134324
:10253C004B6000F021F802460B4B5B681B0903F063
:10254C000F030A49CB5C22FA03F3094A1360094BC7
:10255C001B681846FFF786F9002318461037BD464E
:10256C0080BD00BF0020024000100240902E0008E9
:10257C004C0000205000002080B487B000AF002336
:10258C00FB600023BB6000237B6100237B60002386
:10259C003B611E4B5B68FB60FB6803F00C03042B78
:1025AC0002D0082B03D027E0194B3B6127E0FB68D6
:1025BC009B0C03F00F03174AD35C7B60FB6803F49E
:1025CC008033002B10D0114B5B685B0C03F00103C4
:1025DC00114AD35CBB607B680D4A03FB02F2BB68FB
:1025EC00B2FBF3F37B6104E07B680C4A02FB03F360
:1025FC007B617B693B6102E0054B3B6100BF3B6942
:10260C0018461C37BD4680BC704700BF0010024006
:10261C0000127A00A02E0008B02E000800093D0020
:10262C0080B485B000AF78600A4B1B680A4AA2FBE5
:10263C0003235B0A7A6802FB03F3FB6000BFFB68B1
:10264C005A1EFA60002BF9D100BF00BF1437BD46EB
:10265C0080BC70474C000020D34D621080B582B016
:10266C0000AF78607B68002B01D1012341E07B68CF
:10267C0093F83D30DBB2002B06D17B68002283F847
:10268C003C207868FEF7D8FF7B68022283F83D2057
:10269C007B681A687B6804331946104600F056FABA
:1026AC007B68012283F846207B68012283F83E2058
:1026BC007B68012283F83F207B68012283F840204D
:1026CC007B68012283F841207B68012283F8422039
:1026DC007B68012283F843207B68012283F8442025
:1026EC007B68012283F845207B68012283F83D201A
:1026FC00002318460837BD4680BD000080B485B065
:10270C0000AF78607B6893F83D30DBB2012B01D0D1
:10271C00012335E07B68022283F83D207B681B682F
:10272C00DA687B681B6842F00102DA607B681B6820
:10273C00164A934209D07B681B68B3F1804F04D0D2
:10274C007B681B68124A934211D17B681B689B689B
:10275C0003F00703FB60FB68062B10D07B681B683B
:10276C001A687B681B6842F001021A6007E07B68FC
:10277C001B681A687B681B6842F001021A60002310
:10278C0018461437BD4680BC704700BF002C014072
:10279C000004004080B584B000AF78607B681B6893
:1027AC00DB68FB607B681B681B69BB60BB6803F064
:1027BC000203002B20D0FB6803F00203002B1BD07C
:1027CC007B681B686FF002021A617B6801221A7722
:1027DC007B681B689B6903F00303002B03D07868AC
:1027EC0000F098F905E0786800F08BF9786800F053
:1027FC009AF97B6800221A77BB6803F00403002B5C
:10280C0020D0FB6803F00403002B1BD07B681B68F3
:10281C006FF004021A617B6802221A777B681B68CE
:10282C009B6903F44073002B03D0786800F072F9B5
:10283C0005E0786800F065F9786800F074F97B6859
:10284C0000221A77BB6803F00803002B20D0FB682A
:10285C0003F00803002B1BD07B681B686FF0080289
:10286C001A617B6804221A777B681B68DB6903F0AA
:10287C000303002B03D0786800F04CF905E078686E
:10288C0000F03FF9786800F04EF97B6800221A7767
:10289C00BB6803F01003002B20D0FB6803F010037F
:1028AC00002B1BD07B681B686FF010021A617B68D1
:1028BC0008221A777B681B68DB6903F44073002BD2
:1028CC0003D0786800F026F905E0786800F019F973
:1028DC00786800F028F97B6800221A77BB6803F04F
:1028EC000103002B0CD0FB6803F00103002B07D075
:1028FC007B681B686FF001021A617868FEF764FE52
:10290C00BB6803F08003002B0CD0FB6803F0800342
:10291C00002B07D07B681B686FF080021A61786807
:10292C0000F06FFABB6803F04003002B0CD0FB687F
:10293C0003F04003002B07D07B681B686FF040024C
:10294C001A61786800F0F8F8BB6803F02003002BDC
:10295C000CD0FB6803F02003002B07D07B681B68AE
:10296C006FF020021A61786800F042FA00BF10374D
:10297C00BD4680BD80B584B000AF7860396000235F
:10298C00FB737B6893F83C30012B01D10223B4E03C
:10299C007B68012283F83C207B68022283F83D206F
:1029AC007B681B689B68BB60BB6823F07703BB60CC
:1029BC00BB6823F47F43BB607B681B68BA689A6072
:1029CC003B681B68B3F5005F3ED0B3F5005F00F2C7
:1029DC008780B3F5805F00F08680B3F5805F7FD889
:1029EC00702B1AD0702B7BD8602B50D0602B77D8E3
:1029FC00502B3CD0502B73D8402B58D0402B6FD839
:102A0C00302B64D0302B6BD8202B60D0202B67D888
:102A1C00002B5CD0102B5AD062E07B6818683B68A6
:102A2C0099683B685A683B68DB6800F06AF97B6818
:102A3C001B689B68BB60BB6843F07703BB607B681B
:102A4C001B68BA689A604FE07B6818683B689968A5
:102A5C003B685A683B68DB6800F053F97B681B687D
:102A6C009A687B681B6842F480429A603CE07B6801
:102A7C0018683B6859683B68DB681A4600F0CAF86E
:102A8C007B681B685021184600F021F92CE07B680C
:102A9C0018683B6859683B68DB681A4600F0E8F830
:102AAC007B681B686021184600F011F91CE07B68FC
:102ABC0018683B6859683B68DB681A4600F0AAF84E
:102ACC007B681B684021184600F001F90CE07B681C
:102ADC001A683B681B681946104600F0F8F803E0CA
:102AEC000123FB7300E000BF7B68012283F83D20CB
:102AFC007B68002283F83C20FB7B18461037BD46D0
:102B0C0080BD80B483B000AF786000BF0C37BD4689
:102B1C0080BC704780B483B000AF786000BF0C37C6
:102B2C00BD4680BC704780B483B000AF786000BFF6
:102B3C000C37BD4680BC704780B483B000AF786062
:102B4C0000BF0C37BD4680BC7047000080B485B018
:102B5C0000AF786039607B681B68FB607B682B4A30
:102B6C00934207D07B68B3F1804F03D07B68284A2F
:102B7C00934208D1FB6823F07003FB603B685B68F1
:102B8C00FA681343FB607B68204A934207D07B684A
:102B9C00B3F1804F03D07B681D4A934208D1FB6888
:102BAC0023F44073FB603B68DB68FA681343FB60FB
:102BBC00FB6823F080023B685B691343FB607B6816
:102BCC00FA681A603B689A687B68DA623B681A6834
:102BDC007B689A627B680D4A934203D13B681A6901
:102BEC007B681A637B6801225A617B681B6903F05E
:102BFC000103002B05D07B681B6923F001027B6865
:102C0C001A6100BF1437BD4680BC7047002C0140D0
:102C1C000004004080B487B000AFF860B9607A60FF
:102C2C00FB681B6A7B61FB681B6A23F00102FB6873
:102C3C001A62FB689B693B613B6923F0F0033B61C3
:102C4C007B681B013A6913433B617B6923F00A03E0
:102C5C007B617A69BB6813437B61FB683A699A6153
:102C6C00FB687A691A6200BF1C37BD4680BC70478E
:102C7C0080B487B000AFF860B9607A60FB681B6AFB
:102C8C007B61FB681B6A23F01002FB681A62FB680D
:102C9C009B693B613B6923F470433B617B681B037D
:102CAC003A6913433B617B6923F0A0037B61BB68EA
:102CBC001B017A6913437B61FB683A699A61FB6873
:102CCC007A691A6200BF1C37BD4680BC704780B45D
:102CDC0085B000AF786039607B689B68FB60FB68EF
:102CEC0023F07003FB603A68FB68134343F007035F
:102CFC00FB607B68FA689A6000BF1437BD4680BCE5
:102D0C00704780B487B000AFF860B9607A603B6000
:102D1C00FB689B687B617B6923F47F437B613B6829
:102D2C001A027B681A43BB6813437A6913437B61AD
:102D3C00FB687A699A6000BF1C37BD4680BC70473F
:102D4C0080B485B000AF786039607B6893F83C3014
:102D5C00012B01D1022341E07B68012283F83C2046
:102D6C007B68022283F83D207B681B685B68FB60F4
:102D7C007B681B689B68BB60FB6823F07003FB607F
:102D8C003B681B68FA681343FB607B681B68FA6836
:102D9C005A607B681B68144A934209D07B681B6895
:102DAC00B3F1804F04D07B681B68104A93420CD15E
:102DBC00BB6823F08003BB603B685B68BA68134355
:102DCC00BB607B681B68BA689A607B68012283F8D9
:102DDC003D207B68002283F83C20002318461437E2
:102DEC00BD4680BC704700BF002C01400004004071
:102DFC0080B483B000AF786000BF0C37BD4680BC98
:102E0C00704780B483B000AF786000BF0C37BD460C
:102E1C0080BC704703460244934200D1704703F8CC
:102E2C00011BF9E770B500260C4D0D4C641BA4106A
:102E3C00A64209D100F01AF800260A4D0A4C641B70
:102E4C00A410A64205D170BD55F8043B9847013635
:102E5C00EEE755F8043B98470136F2E7B42E00082C
:102E6C00B42E0008B42E0008B82E0008F8B500BF28
:102E7C00F8BC08BC9E467047F8B500BFF8BC08BC4F
:042E8C009E467047A7
:102E9000000000000000000001020304060708090A
:102EA00002030405060708090A0B0C0D0E0F10108B
:042EB000010200001B
:042EB40031010008E0
:042EB8000D01000800
:102EBC000100000001000000010000000100000002
:102ECC0001000000010000000100000001000000F2
:102EDC0001000000010000000100000001000000E2
:102EEC00C8000000C8000000C8000000010000007D
:102EFC0005000000020000000300000000127A0030
:082F0C001000000001000000AC
:04000005080017F9DF
:00000001FF
